:10000000251C300E5296482225757594D894789404
:1000100044F8B1F7AAF3A0F798F3989589F384F719
:100020007DF775F36FF767F358F354F34AF341F72D
:100030003AF730F72EF726F31BF713F3389423FA29
:100040000E9400007E9895758894D894F894A8949E
:100050006624C894E894B8949894D094EF14EF046C
:100060002D323910EA94D895469057914E240903C1
:1000700081039A0309950994DFB2B3950C940000AB
:100080005C905D905E90688069906A906E80608000
:100090006190629066800BE710913930C89554905A
:1000A0004590770C8694F12D2401239F4502670328
:1000B00091940000012B006881BE7F909F92A0DF89
:1000C000089518959DCFD795EE1F45080242A69A30
:1000D000A599A39B8D97A46443FF089458947894A2
:1000E0005894DFEF48946894389418948895F8955C
:1000F0004C924D924E92488249924A924C82408252
:100100004192429244826092452380922301781862
:080110001B579294BB20A89537
:00000001FF
